:1000000000500020590100005F0100006301000062
:10001000D5010000D901000021020000000000000D
:100020000000000000000000000000006902000065
:100030006D02000000000000710200002D0B0000A6
:100040008502000000B583B000F024FC304B314A3B
:100050001360314A1360314B314A03E01168196073
:10006000043304322F498B42F8D32A4B1A682E4BA3
:100070009A4200D0FEE7284B1A682C4B9A42F9D1DD
:10008000234B2B4A13602B4A13602B4B02E00022B8
:100090001A600433294A9342F9D3254B1B6813B9DC
:1000A000244B1B6803B1FEE700F000FC694601A881
:1000B00000F0BEF9224B234CE41AA4100025AC42F8
:1000C00014DC214B214CE41AA4100025AC4213DCB3
:1000D0000099019800F02EFD05461D4B1D4CE41AB9
:1000E000A410002C0EDC284600F03EF9144B53F807
:1000F000253098470135E2E7134B53F825309847F0
:100100000135E3E7013C124B53F824309847E8E708
:10011000BABADECA00000020D8010020000000208A
:1001200040220000DC0100207856341232547698C8
:10013000DC01002098030020DC0100209C0300204B
:10014000B0020000B0020000B0020000B0020000E7
:10015000B0020000B002000008B5FFF773FF00BE58
:10016000FEE71EF0040F0CBFEFF30880EFF30980E9
:100170007146414A10472DE9F04182B00446884655
:10018000124B5E6B9F6B9D6A1B6B13F0020F03D0CB
:100190000E4BDB6A002B0CDB0D4800F0FBFACDF8B0
:1001A00000803B4632462946204600F083FB00BED5
:1001B000FEE74BF6AB6100F0F7FB0028ECD04FF008
:1001C0000042024BDA6202B0BDE8F08100ED00E0CF
:1001D0000020000000BEFEE71EF0040F0CBFEFF38E
:1001E0000880EFF309807146244A10472DE9F04159
:1001F00082B004468846084B5E6B9F6B9D6A074839
:1002000000F0C8FACDF800803B4632462946204629
:1002100000F050FB00BEFEE700ED00E01020000003
:100220001EF0040F0CBFEFF30880EFF30980714656
:10023000134A10472DE9F04182B004468846084B26
:100240005E6B9F6B9D6A074800F0A4FACDF80080B2
:100250003B4632462946204600F02CFB00BEFEE716
:1002600000ED00E01C20000000BEFEE700BEFEE73F
:1002700000BEFEE77047000077010000ED010000BE
:0602800035020000FEE75C
:100288004022000000000020DC0100204022000085
:100298000000001000000010DC0100209C0300207A
:0802A80000000010000000102E
:1002B00008B503460C4A12685AB10B4A106803335A
:1002C00023F003030344094A934206D8064A136005
:1002D00008BD0749044A1160EFE700F073FC0C23E6
:1002E00003604FF0FF3008BDE0010020004C00200B
:1002F0009C03002030B50025132420462946ABBEC0
:100300000446204630BD38B5044600F05BFC054687
:10031000FFF7F0FF2860204638BDB0F1FF3F00D066
:10032000704708B5FFF7EFFF08BD000010B50446A1
:100330000B4B186808B1836B5BB1132C0CD8094BBD
:1003400053F83430B3F1FF3F08D0064800EBC40047
:1003500010BD00F07DFCF0E7002010BD002010BDB6
:10036000080000206802002000B530B9044D1824B0
:1003700020462946ABBE0446FEE7024DF7E700BF24
:1003800026000200230002002DE9F04184B0234F33
:1003900001970326039600230293012401AD204612
:1003A0002946ABBE80461E4BC3F8008001970396DA
:1003B0000423029320462946ABBE8046194BC3F85E
:1003C0000080019703960823029320462946ABBE7E
:1003D0000446154B1C60B4F1FF3F01D000230AE036
:1003E000104B1A68104B1A60F8E74FF0FF310F4AB4
:1003F00042F833100133132BF7DD0C4B084A126817
:100400001A6000225A60074909689960DA60064953
:10041000096819615A6104B0BDE8F081B41E00009A
:1004200060020020640200205C02002068020020BC
:100430002DE9F04F83B083468A46354B00934F2316
:1004400001936C46152630462146ABBE0646002E6B
:1004500049D1B14600222E4B83F84F20009DB04673
:10046000374616E000F0DEFC204490F90130002B06
:1004700020DB092C1CD03B4653B9082E34DC222C3F
:100480001AD0272C18D0234B43F8265001360127C9
:10049000013595F900403CB3002FE3D0B8F1000FCF
:1004A0000DD0A045F4D100232B70C8464F46EFE78E
:1004B0000123E1E70123DFE70135A046E3E700F090
:1004C000B1FC204490F90130002B0ADB092C06D046
:1004D0004346002BDCD000232B704746D8E73B4631
:1004E000F7E73B46F5E700262EB9094B00221A70C4
:1004F000084A13600136074B002243F82620CBF848
:100500000060CAF80030FFF73FFF03B0BDE8F08F8E
:10051000E40100203402002030B585B00190029142
:10052000039201AD062420462946ABBE0446204670
:10053000FFF7F3FE05B030BD70B50E461546FFF768
:10054000F5FE68B104462A4631460068FFF7E4FF2D
:10055000B0F1FF3F03D0281A63680344636070BDA5
:1005600000F030FB092303604FF0FF3070BDF0B5A1
:1005700083B00C461546FFF7D9FEC0B10646022DE2
:100580001CD8012D21D0022D34D033680093019462
:100590006F460A2528463946ABBE05462846FFF772
:1005A000BCFE00283DDB7460204603B0F0BD00F0C7
:1005B00009FB092303604FF0FF30F6E700F002FB70
:1005C000162303604FF0FF30EFE74368E41801D4CF
:1005D0000025D8E700F0F6FA162303607368002BB5
:1005E00019DD002C1ADD00F0EDFA8B2303604FF0CB
:1005F000FF30DAE7336802AF47F8083D0C2528469C
:100600003946ABBE05462846FFF787FEB0F1FF3FEF
:10061000CBD00444B9E74FF0FF30C6E74FF0FF30CE
:10062000C3E74FF0FF30C0E708B5FFF7A0FF08BDF4
:1006300030B585B001900291039201AD05242046AA
:100640002946ABBE04462046FFF767FE05B030BD25
:1006500070B50E461446FFF769FE70B10546224696
:1006600031460068FFF7E4FF021E11DBA01A6B6839
:1006700003446B60944207D070BD00F0A3FA0923D5
:1006800003604FF0FF3070BD0020FFF73CFE70BDEF
:100690004FF0FF30F0E730B583B002AD45F8040D00
:1006A000022420462946ABBE04462046FFF735FE0D
:1006B00003B030BD38B50446FFF738FE68B10546D3
:1006C000013C012C10D92868FFF7E5FF034610B95B
:1006D0004FF0FF322A60184638BD00F073FA092344
:1006E00003604FF0FF33F6E7044B9A681B699A42A8
:1006F000E9D14FF0FF3303600023ECE768020020EC
:1007000070B50C46FFF712FEA8B10646636843F4C5
:10071000005363604FF48063E3620C252846314642
:10072000ABBE05462846FFF7F8FDB0F1FF3F01D00C
:100730002061002070BD00F045FA092303604FF0EE
:10074000FF3070BD38B505460C463C2200212046DE
:1007500000F093FB21462846FFF7D2FF38BD38B59D
:10076000FFF7E4FD80B10546092420462946ABBECB
:1007700004462046012C06D000F024FA0446FFF778
:10078000B9FD2060002038BD00F01CFA0923036089
:10079000002038BD0FB400B583B004AB53F8042B70
:1007A00001938021064800F05BFD002803DD01462F
:1007B000034800F06BF803B05DF804EB04B0704739
:1007C0000803002010B5044600F07FFC01462046D7
:1007D00000F05CF80121024800F058F810BD00BF9D
:1007E0007C1F000070B505460E4601460B48FFF71A
:1007F000D1FF002405E056F824100948FFF7CAFF8E
:100800000134AC4205DA002CF5D00648FFF7C2FFF0
:10081000F1E70548FFF7BEFF70BD00BFB81E00003E
:10082000D41E0000D01E0000DC1E00002DE9F043A5
:1008300085B004460F4643560BB10E461EE0042514
:1008400028462146ABBE0446384605B0BDE8F083D5
:1008500014F9011B04AA1A4402F8101C0133AB421C
:10086000F6D304AA1344002203F8102CE9464FF0F3
:10087000040840464946ABBE8046761B002EE3D0B6
:100880003546102E28BF10250023E8E708B5FFF7EE
:10089000CDFF08BD08B500F00FF9024B024A9A607F
:1008A00008BD00BF00ED00E00000000008B500F04A
:1008B000FBF808BDF8B504460D4617461E46274806
:1008C000FFF768FF21682648FFF764FF6168254845
:1008D000FFF760FFA1682448FFF75CFFE168234849
:1008E000FFF758FF21692248FFF754FF616921484B
:1008F000FFF750FFA1692048FFF74CFFE1691F484F
:10090000FFF748FF1E48FFF745FF29461D48FFF740
:1009100041FF1D4CE16A1D48FFF73CFF216B1C485D
:10092000FFF738FFE16B1B48FFF734FF15F0800F2E
:100930000AD115F4004F0CD11748FFF72BFF069989
:100940001648FFF727FFF8BD39461548FFF722FF85
:10095000EFE731461348FFF71DFFEDE7E41E000007
:10096000F41E0000041F0000141F0000241F0000DC
:10097000341F0000441F0000541F0000641F0000CB
:10098000741F0000801F000000ED00E0901F0000B9
:10099000A01F0000B01F0000E01F0000E81F0000C3
:1009A000C01F0000D01F000038B583691B888B4230
:1009B00001D0002038BD044603684568013B302B58
:1009C00069D8DFE803F046211C1C5E30332D19196D
:1009D00068191919191936192468192768396868A6
:1009E0006868686868686868686868686868686887
:1009F00068686868681919004FF0FF330360A369DD
:100A00000233A361012038BD00230360F7E7002310
:100A10000360F4E700232B606B60AB60EB60EEE7F4
:100A200000230360EBE7AB680360E8E700230360A3
:100A3000E5E700230360E2E7BFF34F8F1749CA6879
:100A400002F4E062164B1343CB60BFF34F8F00BF3D
:100A5000FDE71449286800F02EFB70B96B6813B9E4
:100A600001232360CBE7042B02D102232360C6E7D6
:100A7000082B02D103232360C1E74FF0FF3323602B
:100A8000BDE72B68023B012B02D9AB680360B6E7D8
:100A900000230360B3E7002038BD00BF00ED00E095
:100AA0000400FA05B41E0000014A024B1A607047A8
:100AB00000127A0004000020014A024B1A607047BD
:100AC00000127A00040000200A4B1B680A4AA2FBAD
:100AD00003239B09013BB3F1807F09D2074A53608E
:100AE000C021074B83F82310002393600723136072
:100AF000704700BF04000020D34D621010E000E0FA
:100B000000ED00E0034B1860024B1B68002BFBD18B
:100B1000704700BF94030020034B1B681BB1024ABF
:100B20001368013B136070479403002008B5FFF77A
:100B3000F3FF08BD38B504460D46FFF753FE1848CD
:100B4000FFF740FE174800F05BFA174B1B68DB68A5
:100B500018220121154800F053F9154B1968154862
:100B6000FFF718FEFFF7B0FF012C02DD686800F008
:100B700025F80024284400F0150040F00C004FF048
:100B8000150508E04FF47A70FFF7BCFF01342146E9
:100B90000948FFF7FFFDAC42F4DB002038BD00BF81
:100BA0002C20000040200000080000205C200000F5
:100BB0000400002078200000902000000A2200217C
:100BC00000F00CBB014B1868704700BF0800002004
:100BD000014900F0A9B800BF6D150000002310B551
:100BE000044603604360836081814366C281036180
:100BF00043618361194608225C3000F03EF9054BE1
:100C00006362054BA362054BE362054B24622363D9
:100C100010BD00BF31100000531000008B10000009
:100C2000AF10000070B54A1E682555430E4605F109
:100C3000740100F02BF9044640B1002180E8420025
:100C40000C30A06005F1680200F017F9204670BD75
:100C5000836910B5044633BB8364C3640365124BD8
:100C6000124A1B688262984204BF0123836100F02C
:100C70001FF86060204600F01BF8A060204600F0DE
:100C800017F80022E06004216068FFF7A7FF012247
:100C90000921A068FFF7A2FF02221221E068FFF7F6
:100CA0009DFF0123A36110BDFC200000D10B0000BB
:100CB000F8B51C4B1E68B369074613B93046FFF7F9
:100CC000C7FF4836B4687368013B03D5336833B156
:100CD0003668F7E7B4F90C506DB16834F4E70421D5
:100CE0003846FFF79FFF30600028F1D10C233B60AE
:100CF00004462046F8BD4FF6FF73E3810123A3812C
:100D000065662560A560656025616561A56108224D
:100D1000294604F15C0000F0B0F86563A563A564A2
:100D2000E564E6E7FC2000002DE9F84380468946AB
:100D300000F14804002614B93046BDE8F883A568E0
:100D40006768013F01D52468F5E7AB89012B07D916
:100D5000B5F90E30013303D029464046C847064353
:100D60006835EEE72DE9F843089C8946174602FBF3
:100D700003F8064618B183690BB9FFF769FF1D4BED
:100D80009C421AD17468A3891B0720D52369F3B14B
:100D90000025454529D0A36819F80510013B002B13
:100DA000A36004DAA269934219DB0A2917D02368E9
:100DB0005A1C226019700135EBE70F4B9C4201D1A0
:100DC000B468E0E70D4B9C4208BFF468DBE72146BE
:100DD000304600F0C5FA0028DAD0002505E02246AA
:100DE000304600F04BFA0130E5D1B5FBF7F0BDE835
:100DF000F88300BFBC200000DC2000009C20000025
:100E000007B5009313460A46014603480068FFF7FA
:100E1000A9FF03B05DF804FB08000020D0F8EC0047
:100E200070470000044B054A1B681B6A002B08BF73
:100E30001346D3F8EC007047080000206C00002037
:100E400082B001B901A942B14BB113780B6012789D
:100E5000101C18BF012002B070471046FBE76FF06E
:100E60000100F8E710B5431E0A44914200D110BDBD
:100E700011F8014B03F8014FF7E702440346934290
:100E800000D1704703F8011BF9E7000070B5CD1CD5
:100E900025F0030508350C2D38BF0C25002D06461E
:100EA00001DBA94203D90C233360002070BD00F0A0
:100EB000FDFB234A1468214691B9224C23681BB9D3
:100EC000304600F0A5F820602946304600F0A0F832
:100ED000431C26D10C233360304600F0E8FBE4E7E6
:100EE0000B685B1B1AD40B2B0FD90B60CD50CC18A1
:100EF000304600F0DCFB04F10B00231D20F007005E
:100F0000C31A1BD05A42E25070BD8C420DBF6368B9
:100F10004B686360136018BF0C46E9E70C464968EC
:100F2000CAE7C41C24F00304A04205D0211A3046AD
:100F300000F06EF80130CDD02560D9E770BD00BF5C
:100F4000880300208C03002070B50E46054618B1BA
:100F500083690BB9FFF77CFEAB69AC6813B928460F
:100F6000FFF776FE234B9C4217D16C68A3891B07C1
:100F70001DD52369DBB1013EA36816F8011F013BB3
:100F8000A360E9B9002B2EDA22460A21284600F098
:100F900075F9013011D00A2070BD174B9C4201D168
:100FA000AC68E3E7154B9C4208BFEC68DEE72146DE
:100FB000284600F0D5F90028DDD04FF0FF3070BD95
:100FC000002B04DAA269934206DB0A2904D02368C5
:100FD0005A1C22601970CFE72246284600F04EF9CD
:100FE0000130C9D1E9E723680A205A1C2260187031
:100FF00070BD00BFBC200000DC2000009C20000071
:10100000024B01461868FFF79FBF00BF0800002091
:1010100038B5064C0023054608462360FFF748F91B
:10102000431C02D1236803B12B6038BD900300201C
:1010300010B50C46B1F90E1000F06EFE0028ABBFE3
:10104000636DA3891B1823F48053ACBF6365A38130
:1010500010BD2DE9F0411F468B89DB0505460C4686
:10106000164605D502230022B1F90E1000F0A8FAA9
:10107000A389B4F90E1023F48053A38132463B4672
:101080002846BDE8F04100F059B910B50C46B1F959
:101090000E1000F095FA431CA38915BF606523F478
:1010A000805343F48053A38118BFA38110BDB1F9CD
:1010B0000E1000F0C3B910F8012B11F8013B012A02
:1010C00028BF9A42F7D0D01A7047034613F8012B75
:1010D000002AFBD1181A013870472DE9F84F8046D5
:1010E000894692461F468B465D460A9815F8014B85
:1010F000FFF794FE2044467816F008060BD12D2CFD
:101100000BD12C7801260BF1020567B1102F14D1F9
:10111000302C0AD011E0AB46E6E72B2C04BF2C782C
:101120000BF10205F1E7302C27D12B7803F0DF0318
:10113000582B4BD16C7810270235002E0CBF6FF066
:1011400000414FF000410022B1FBF7FE104607FBC3
:101150001E1CA4F13003092B11D81C46A7421DDD2B
:10116000531C07D0864516D301D1A44513DB00FBE1
:101170000740012215F8014BEBE70A27DDE7A4F150
:101180004103192B01D8373CE8E7A4F16103192B7F
:1011900004D8573CE2E74FF0FF32EBE7531C08D18D
:1011A0002223C8F800300846BAF1000F07D1BDE885
:1011B000F88F06B14042BAF1000F0CD022B1013DC8
:1011C000CAF80050BDE8F88F4D46F9E73024002FEB
:1011D000B3D10827B1E7BDE8F88F0000084B37B559
:1011E0001C68084D236A002B08BF2B46009313464A
:1011F0000A4601462046FFF770FF03B030BD00BF2E
:10120000080000206C00002030B5141E05469BB07D
:10121000184605DA8B232B604FF0FF301BB030BD32
:101220004FF40273ADF80C3014BF04F1FF332346C2
:10123000029305934FF6FF7300910491ADF80E30C1
:1012400002461E9B6946284600F0DCFA431CBCBFE0
:101250008B232B60002CE1D0009B00221A70DDE76D
:1012600007B5009313460A46014603480068FFF796
:10127000CBFF03B05DF804FB08000020F8B50E4674
:101280001446054618B183690BB9FFF7E1FC214B01
:101290009C422AD16C68A369A360A3891A072ED542
:1012A000236963B323692068C01A6369F6B2984260
:1012B000374604DB2146284600F058F928BBA368CE
:1012C000013BA36023685A1C22601E7063690130D1
:1012D000984204D0A389DB0719D50A2E17D12146DD
:1012E000284600F043F990B10FE00B4B9C4201D12E
:1012F000AC68D0E7094B9C4208BFEC68CBE72146BD
:10130000284600F02DF80028CCD04FF0FF373846A3
:10131000F8BD00BFBC200000DC2000009C200000C5
:1013200049B1FF2A85BF8A2303600A704FF0FF305E
:1013300098BF0120704708467047000038B5074C39
:10134000054608461146002222601A46FFF780F93A
:10135000431C02D1236803B12B6038BD90030020E9
:10136000324B70B51D6806460C4625B1AB6913B902
:101370002846FFF76DFC2E4B9C420FD16C68B4F9E8
:101380000C309AB215072CD4D00611D40922326041
:1013900043F04003A3814FF0FF3070BD254B9C42CA
:1013A00001D1AC68EBE7244B9C4208BFEC68E6E750
:1013B000510712D5616B41B104F14403994202D047
:1013C000304600F075F900236363A38923F02403FA
:1013D000A3810023636023692360A38943F008038A
:1013E000A38123694BB9A38903F42073B3F5007F6C
:1013F00003D02146304600F019F9A28912F001030A
:101400000CD00023A36063695B42A361236953B9D5
:10141000B4F90C3013F08000BAD170BD920758BFF8
:101420006369A360F2E70020F7E700BF080000202F
:10143000BC200000DC2000009C20000038B5064CD9
:101440000023054608462360FFF734F9431C02D108
:10145000236803B12B6038BD900300208A892DE9F1
:10146000F041054610070C465AD44B68002B05DCAA
:101470000B6C002B02DC0020BDE8F081E66A002E38
:10148000F9D0002312F480522F682B6033D0606DA6
:10149000A3895A0705D56368C01A636B0BB1236C27
:1014A000C01A00230246E66A216A2846B047431C58
:1014B000A38906D129681D294BD82B4ACA40D607D3
:1014C00047D500226260D9042269226004D5421CFB
:1014D00001D12B6803B96065616B2F600029CAD008
:1014E00004F14403994202D0284600F0E1F80020BC
:1014F0006063BDE8F081216A01232846B047411CA2
:10150000C6D12B68002BC3D01D2B01D0162B01D1C7
:101510002F60B0E7A38943F04003A381BDE8F081C9
:101520000F69002FA7D093070E6808BF4B690F60A3
:1015300018BF0023A6EB07088B60B8F1000F9ADDF7
:1015400043463A46216AA66A2846B047002807DC87
:10155000A38943F04003A3814FF0FF30BDE8F08141
:101560000744A8EB0008E8E70100402038B50B6904
:1015700005460C46DBB118B183690BB9FFF768FB70
:101580000C4B9C4209D16C68B4F90C307BB12146FC
:101590002846BDE83840FFF761BF074B9C4201D1A8
:1015A000AC68F1E7054B9C4208BFEC68ECE7002013
:1015B00038BD00BFBC200000DC2000009C200000E3
:1015C00038B5074C054608461146002222601A46E7
:1015D000FFF72AF8431C02D1236803B12B6038BD02
:1015E0009003002070B50E46B1F90E10002990B09E
:1015F00014461D4607DA00232B60B3891A0610D45F
:101600004FF480630EE001AA00F098FB0028F2DBA3
:10161000029A02F47042A2F500535A425A412A60DB
:10162000EEE740230020236010B070BD8B8973B5B6
:101630009D0706460C4607D504F147032360236146
:101640000123636102B070BD01AB6A46FFF7CAFFB8
:10165000009905463046FFF719FC48B9B4F90C303B
:101660009A05EFD423F0030343F00203A381E3E7D9
:101670000D4BB362A389206043F08003A381009BDC
:101680006361019B20615BB1B4F90E10304600F03C
:1016900067FB28B1A38923F0030343F00103A3816F
:1016A000A3891D43A581CDE7D10B0000704770478A
:1016B00038B50546002945D051F8043C0C1F002BD5
:1016C000B8BFE418FFF7F2FF1F4A1368104633B99A
:1016D000636014602846BDE83840FFF7E8BFA342C6
:1016E0000CD921686218934204BF1A685B68636072
:1016F00004BF521822600460ECE713465A680AB12E
:10170000A242FAD919685818A0420BD120680144A6
:10171000581882421960DDD1106852685A6001443D
:101720001960D7E702D90C232B60D3E72068211872
:101730008A4204BF11685268626004BF09182160C0
:101740005C60C7E738BD00BF880300202DE9F04783
:101750008E689E4282460C469146984635D88A89C4
:1017600012F4906F31D0256809696F1A65690223F8
:1017700005EB450595FBF3F508F101033B449D425C
:1017800038BF1D46530531D52946FFF77FFB064676
:1017900050B90C23CAF80030A38943F04003A38159
:1017A0004FF0FF30BDE8F0873A462169FFF75AFB5A
:1017B000A38923F4906343F08003A38126616561CC
:1017C0003E44ED1B2660A5604646464528BF46467A
:1017D00032464946206800F023FBA3689B1BA360A8
:1017E00023681E4426600020BDE8F0872A4600F0EA
:1017F00031FB06460028E1D121695046FFF758FF2A
:10180000C7E700002DE9F04F9DB0804603938B8918
:101810001C060D4616460FD50B696BB94021FFF724
:1018200035FB2860286128B90C23C8F800304FF038
:10183000FF30C5E040236B610023099320238DF81E
:10184000293030238DF82A304FF0010B37463C46C3
:1018500014F8013B002B3CD1B7EB060A0BD05346E2
:10186000324629464046FFF771FF013000F0A38061
:10187000099B534409933B78002B00F09C80002384
:101880004FF0FF3204930793059206938DF853307F
:101890001A9305222178504800F072FA671C049BC5
:1018A000D8B9D90644BF20228DF853201A0744BF67
:1018B0002B228DF8532022782A2A16D0079A00214D
:1018C0000A20274601343B78303B092B51D9C9B156
:1018D00011E0252BC0D02746B9E73F4A801A0BFA02
:1018E00000F0184304903C46D3E7039A111D126898
:1018F0000391002A01DB079204E0524243F0020305
:10190000079204933B782E2B0ED17B782A2B07F17C
:10191000010132D1039B1A1D1B680392002BB8BF33
:101920004FF0FF33023705932C4C397803222046C1
:1019300000F026FA38B14023001B03FA00F0049BA4
:10194000034304930137397825488DF8281006227F
:101950007E1C00F015FA002835D0224BFBB9039B02
:10196000073323F0070308330393099B4B44099380
:101970006CE700FB02320121A3E700230593184620
:101980000A240F4601313A78303A092A03D9002B4C
:10199000CAD00590C8E704FB00200123F1E703ABA0
:1019A00000932A46104B04A94046AFF30080B0F1E3
:1019B000FF3F8146D9D1AB895B063FF538AF099827
:1019C0001DB0BDE8F08F03AB00932A46064B04A977
:1019D000404600F081F8EAE70B22000011220000E7
:1019E00015220000000000004D1700002DE9F0470F
:1019F00091461F468A680B69DDF820809342B8BF84
:101A00001346C9F8003091F8432006460C4612B13F
:101A10000133C9F800302368990642BFD9F8003075
:101A20000233C9F80030256815F0060507D104F126
:101A3000190AE368D9F800209B1A9D4229DB94F823
:101A400043302268003318BF012392062ED404F1DC
:101A5000430239463046C047013021D02368E5684B
:101A6000D9F8002003F00603042B08BFAD1AA368C1
:101A700022690CBF25EAE57500259342C4BF9B1A75
:101A8000ED184FF000091A344D451BD10020BDE878
:101A9000F0870123524639463046C047013003D112
:101AA0004FF0FF30BDE8F0870135C2E7E1185A1C5E
:101AB000302081F84300224494F8451082F8431006
:101AC0000233C4E70123224639463046C04701307D
:101AD000E6D009F10109D7E72DE9F04317460A7E60
:101AE00085B06E2A984606460C460C9B01F1430EC3
:101AF00000F0BC801AD8632A2ED00AD8002A00F041
:101B0000C880582A00F08A8004F1420584F84220F7
:101B10002AE0642A01D0692AF6D121681A6811F0F6
:101B2000800F23D0111D1960136827E0732A00F07D
:101B3000B48008D86F2A2AD0702AE5D10A6842F00A
:101B400020020A6003E0752A21D0782ADCD17822AD
:101B500084F845206E4964E01A6801F14205111DC0
:101B60001960136884F842300123A3E011F0400F9C
:101B700002F104011960D7D0B2F90030002B03DA6A
:101B80002D225B4284F8432062490A2217E0206834
:101B9000196810F0800F03D0081D18600B6806E06C
:101BA00010F0400F01F104001860F7D00B8859497C
:101BB0006F2A14BF0A220822002084F843006568B7
:101BC000A560002DC0F29C80206820F004002060F9
:101BD000002B3FD1002D40F095807546082A0BD18F
:101BE0002368DA0708D5236962689A42DEBF30238A
:101BF00005F8013C05F1FF35AEEB05032361CDF897
:101C000000803B4603AA21463046FFF7EFFE013035
:101C100055D14FF0FF3005B0BDE8F08381F8452085
:101C20003C492268186812F0800F00F104051D601D
:101C300001D0036802E05506FBD50388D00744BFF6
:101C400042F0200222601BB9226822F020022260AA
:101C50001022B1E77546B3FBF2F002FB1033CB5C08
:101C600005F8013D03460028F5D1B7E708681A6872
:101C7000496910F0800F04D0101D186013681960B6
:101C800007E010F0400F02F1040018601368F6D06E
:101C90001980002323617546B1E71A68111D196088
:101CA000156862680021284600F06AF808B1401BF8
:101CB000606063682361002384F843309FE72369F1
:101CC0002A4639463046C0470130A2D023689B07D8
:101CD00007D5002504F11909E368039A9B1A9D4270
:101CE00005DBE068039B9842B8BF184693E70123E1
:101CF0004A4639463046C04701308AD00135EBE7C5
:101D0000002BA7D10B7884F8423004F1420565E737
:101D10002D2200001C22000038B5074C054608465D
:101D20001146002222601A46FEF706FC431C02D12F
:101D3000236803B12B6038BD9003002038B5074CF1
:101D400000230546084611462360FEF7FBFC431CB2
:101D500002D1236803B12B6038BD00BF900300207F
:101D600038B5064C0023054608462360FEF7F7FC0D
:101D7000431C02D1236803B12B6038BD90030020BF
:101D800001F0FF01102A2BDB10F0070F08D010F82C
:101D9000013B013A8B422DD010F0070F42B3F6D130
:101DA000F0B441EA012141EA014122F007047FF049
:101DB00000070023F0E80256083C85EA010586EAA0
:101DC000010685FA47F5A3FA87F586FA47F6A5FADC
:101DD00087F68EB9EED1F0BC01F0FF0102F00702E8
:101DE00032B110F8013B013A83EA010313B1F8D193
:101DF0000020704701387047002D06BF3546033874
:101E0000073815F0010F07D1013015F4807F02BFAC
:101E1000013015F4C03F0130F0BC0138704700BFFD
:101E2000884210B501EB020303D8421E99420CD13F
:101E300010BD9842F9D28118D21AD34200D110BDF8
:101E400013F8014D01F8014DF7E711F8014B02F8C5
:101E5000014FEBE7F8B5074614460E4621B9114687
:101E6000BDE8F840FFF712B822B9FFF721FC25467C
:101E70002846F8BD00F014F884420FD921463846B0
:101E8000FFF704F805460028F2D031462246FEF757
:101E9000E9FF31463846FFF70BFCE9E73546E7E74F
:101EA00051F8040C0028A0F10400BCBF0B58C01866
:101EB000704700003A7474006D61696E2861726742
:101EC000633D25642C20617267763D5B0000000055
:101ED0002C20000022257322000000005D293B0A0F
:101EE00000000000537461636B206672616D653A97
:101EF0000A000000205230203D2020253038580AAA
:101F000000000000205231203D2020253038580AA2
:101F100000000000205232203D2020253038580A91
:101F200000000000205233203D2020253038580A80
:101F30000000000020523132203D20253038580A60
:101F400000000000204C52203D2020253038580A47
:101F500000000000205043203D2020253038580A42
:101F60000000000020505352203D20253038580AF0
:101F7000000000004653522F4641523A0A0000002A
:101F80002043465352203D2020253038580A000077
:101F90002048465352203D2020253038580A000062
:101FA0002044465352203D2020253038580A000056
:101FB0002041465352203D2020253038580A000049
:101FC000204D4D464152203D20253038580A000012
:101FD0002042464152203D2020253038580A00003A
:101FE0004D6973630A000000204C522F4558435F2F
:101FF00052455455524E3D20253038580A000000B5
:102000005B486172644661756C745D0A0000000093
:102010005B4275734661756C745D0A005B55736154
:1020200067654661756C745D0A00000048656C6CFC
:102030006F2041524D20576F726C642100000000E8
:102040005374616E64617264206F7574707574206E
:102050006D6573736167652E000000005374616ED7
:1020600064617264206572726F72206D6573736152
:1020700067652E0A0000000053797374656D206354
:102080006C6F636B3A20257520487A0A00000000C7
:102090005365636F6E642025640A00000000000031
:1020A0000000000000000000000000000000000030
:1020B0000000000000000000000000000000000020
:1020C0000000000000000000000000000000000010
:1020D0000000000000000000000000000000000000
:1020E00000000000000000000000000000000000F0
:1020F0000000000000000000000000000C000020B4
:102100004300504F534958002E000020202020202B
:102110002020202028282828282020202020202097
:102120002020202020202020202020881010101087
:1021300010101010101010101010100404040404DB
:102140000404040404101010101010104141414107
:1021500041410101010101010101010101010101EF
:102160000101010101011010101010104242424201
:1021700042420202020202020202020202020202BF
:1021800002020202020210101010200000000000E3
:10219000000000000000000000000000000000003F
:1021A000000000000000000000000000000000002F
:1021B000000000000000000000000000000000001F
:1021C000000000000000000000000000000000000F
:1021D00000000000000000000000000000000000FF
:1021E00000000000000000000000000000000000EF
:1021F00000000000000000000000000000000000DF
:102200000000000000000000000000232D302B2003
:1022100000686C4C006566674546470030313233D4
:10222000343536373839414243444546003031323F
:0E2230003334353637383961626364656600D1
:102240007856341200127A000C00002000000000C2
:10225000BC200000DC2000009C20000000000000EA
:10226000000000000000000000000000000000006E
:10227000000000000000000000000000000000005E
:10228000000000000000000000000000000000004E
:10229000000000000000000000000000000000003E
:1022A00000000000000000000000000043000000EB
:1022B000000000000000000000000000000000001E
:1022C00000000000000000000000000043000000CB
:1022D00000000000000000000000000000000000FE
:1022E00000000000000000000000000043000000AB
:1022F00000000000000000000000000000000000DE
:10230000000000000000000000000000430000008A
:1023100000000000000000000000000000000000BD
:10232000000000000000000000000000430000006A
:10233000000000000000000000000000000000009D
:10234000000000000000000000000000430000004A
:10235000000000000000000000000000000000007D
:10236000000000000000000000000000430000002A
:10237000000000000000000000000000000000005D
:102380000000000000000000000000002113000019
:10239000410E0000000000000A210000082100009A
:1023A0001022000010220000102200001022000065
:1023B0001022000010220000102200001022000055
:1023C00010220000FFFFFFFFFFFFFFFFFFFFFFFFE7
:1023D000FFFF000001004153434949000000000095
:1023E00000000000000000000000000000000000ED
:1023F0000000000000004153434949000000000074
:1024000000000000000000000000000000000000CC
:0C2410000000000000000000325476982C
:0400000300000045B4
:00000001FF
